:100000000C9462000C947F000C947F000C947F0091
:100010000C947F000C947F000C947F000C947C0166
:100020000C947F000C947F000C947F000C947F0054
:100030000C947F000C947F000C947F000C947F0044
:100040000C9432010C947F000C947F000C947F0080
:100050000C947F000C947F000C947F000C947F0024
:100060000C947F000C947F00000000002400270007
:100070002A000000000023002600290000000008DC
:10008000000201000003040700000000000000005F
:10009000010204081020408001020408102001021F
:1000A0000408102000000000250028002B00040494
:1000B0000404040404040202020202020303030310
:1000C0000303020011241FBECFEFD8E0DEBFCDBF77
:1000D00011E0A0E0B1E0EAE2F7E002C005900D9285
:1000E000A230B107D9F721E0A2E0B1E001C01D9232
:1000F000AC31B207E1F70E94FE010C9493030C941B
:100100000000833081F028F4813099F08230A9F02A
:1001100008958730A9F08830C9F08430B1F4809117
:1001200080008F7D03C0809180008F778093800056
:10013000089584B58F7784BD089584B58F7DFBCFF6
:100140008091B0008F778093B00008958091B000C7
:100150008F7DF9CFCF93DF93282F30E0F901E4585A
:10016000FF4F8491F901E057FF4FD491F901E25517
:10017000FF4FC491CC23A1F081110E948100EC2F8C
:10018000F0E0EE0FFF1FEE58FF4FA591B491EC91F8
:10019000ED2381E090E009F480E0DF91CF910895B4
:1001A00080E090E0FACF1F93CF93DF93282F30E0C9
:1001B000F901E458FF4F8491F901E057FF4FD491C2
:1001C000F901E255FF4FC491CC23A9F0162F8111FC
:1001D0000E948100EC2FF0E0EE0FFF1FEC55FF4F67
:1001E000A591B4918FB7F894EC91111108C0D095F6
:1001F000DE23DC938FBFDF91CF911F910895DE2B1B
:10020000F8CFCF93DF9390E0FC01E057FF4F2491AC
:1002100082559F4FFC0184918823D1F090E0880F94
:10022000991FFC01E859FF4FA591B491FC01EC55D1
:10023000FF4FC591D49161110EC09FB7F8948C9176
:10024000E22FE0958E238C932881E223E8839FBFE1
:10025000DF91CF9108958FB7F894EC91E22BEC9356
:100260008FBFF6CF1F920F920FB60F9211242F93CC
:100270003F938F939F93AF93BF9380911801909179
:100280001901A0911A01B0911B013091170123E0CF
:10029000230F2D3758F50196A11DB11D209317018D
:1002A0008093180190931901A0931A01B0931B0138
:1002B0008091130190911401A0911501B091160144
:1002C0000196A11DB11D8093130190931401A09379
:1002D0001501B0931601BF91AF919F918F913F91FE
:1002E0002F910F900FBE0F901F90189526E8230FA7
:1002F0000296A11DB11DD2CF1F920F920FB60F9281
:1003000011242F933F934F935F936F937F938F931A
:100310009F93AF93BF93EF93FF93809107019091C9
:100320000801A0910901B0910A01892B8A2B8B2B1E
:10033000D1F190910201E0910301F09104018081DB
:10034000892780838091070190910801A09109017C
:10035000B0910A01181619061A061B069CF4809122
:10036000070190910801A0910901B0910A0101973C
:10037000A109B1098093070190930801A093090195
:10038000B0930A01FF91EF91BF91AF919F918F912F
:100390007F916F915F914F913F912F910F900FBE81
:1003A0000F901F90189580910001E2ECF0E0E4912D
:1003B0009FEF90930001E13051F030F0E23069F0AE
:1003C00060E00E94D300DECF10926E00F9CF9091D2
:1003D0006F009D7F90936F00F3CF909170009D7F91
:1003E0009093700091E09093B0009091B100987F4D
:1003F00094609093B1001092B300E2CF789484B5EA
:10040000826084BD84B5816084BD85B5826085BD10
:1004100085B5816085BD80916E00816080936E009E
:100420001092810080918100826080938100809190
:100430008100816080938100809180008160809341
:1004400080008091B10084608093B1008091B00001
:1004500081608093B00080917A00846080937A00FC
:1004600080917A00826080937A0080917A00816026
:1004700080937A0080917A00806880937A0010924D
:10048000C10061E082E00E94010161E083E00E941E
:10049000010161E084E00E94010161E085E00E94C9
:1004A000010160E08BE00E94010160E08CE00E94AD
:1004B000010160E08DE00E9401013FE3432E3CE931
:1004C000532E47EB642E40E0742E09E910E050E013
:1004D000252E50E0352E68EC862E912CA12CB12CC7
:1004E0008BE00E94AA006C018CE00E94AA007C01B3
:1004F0008DE00E94AA0021E0C216D10499F4EF28F1
:1005000021F561E082E00E94D30060E083E00E9478
:10051000D30060E084E00E94D30061E085E00E94A7
:10052000D300ECC0CD2889F4EA94EF2871F460E0A0
:1005300082E00E94D30061E083E00E94D30061E08A
:1005400084E00E94D30060E0E9CF019709F0E5C0A4
:1005500060E082E00E94D30061E083E00E94D3006B
:1005600060E084E00E94D30061E085E00E94D30057
:1005700080910001893031F5E2ECF0E0C491C7FDD3
:10058000BDC061E089E00E940101CC2309F489C06B
:10059000C23009F09AC08091B100887F8660809354
:1005A000B1008BE98093B30080920701909208011B
:1005B000A0920901B0920A0180917000826080933C
:1005C00070009CC08F3F09F099C089E080930001C2
:1005D000E2ECF0E0C491CF3F09F490C0C13019F1D2
:1005E00050F0C23009F43CC0C7FD88C061E089E02A
:1005F0000E940101CDCF14BC15BC84B5826084BDBE
:1006000085B5816085BDF3018491E82FF0E0EE0FA0
:10061000FF1FEC55FF4F85919491F80184918093D1
:100620000601C0E0AECF1092800010928100809150
:100630008100886080938100809181008160809337
:100640008100F3018491E82FF0E0EE0FFF1FEC55DD
:10065000FF4F85919491F80184918093050191CF8A
:100660001092B0001092B1008091B000826080932F
:10067000B0008091B10081608093B100F30184915A
:10068000E82FF0E0EE0FFF1FEC55FF4F859194919E
:100690009093040180930301F801849180930201F7
:1006A00070CF85B5887F846085BD8BE987BD8092DA
:1006B0000F0190921001A0921101B092120180914D
:1006C0006E00826080936E0019C0C130F1F4809199
:1006D0008100887F816080938100509289004092E0
:1006E000880080920B0190920C01A0920D01B092B3
:1006F0000E0180916F00826080936F00211431049D
:1007000009F4EECE0E940000EBCEC23021F0C11100
:10071000F5CF8FE3CBCF8FE345CF61E082E00E943E
:0A072000D30060E009CFF894FFCF8A
:02072A00FF00CE
:00000001FF
